:100000000C9472000C9493000C9493000C94930045
:100010000C9493000C9493000C9493000C94930014
:100020000C9493000C9493000C9493000C94930004
:100030000C9493000C9493000C9493000C949300F4
:100040000C9493000C9493000C9493000C949300E4
:100050000C9431050C9493000C9493000C94930031
:100060000C9493000C9493000C9493000C949300C4
:100070000C9493000C9493000C9493000C949300B4
:100080000C9493000C9493000C9493000C949300A4
:100090000C9493000C9493000C9493000C94930094
:1000A0000C9493000C9493000C9493000C94930084
:1000B0000C9493000C9493000C9493000C94930074
:1000C0000C9493000C9493000C9493000C94930064
:1000D0000C9493000C9493000C9493000C94930054
:1000E0000C94930011241FBECFEFD1E2DEBFCDBF31
:1000F00000E00CBF12E0A0E0B2E0E6E6FFE100E0C5
:100100000BBF02C007900D92A230B107D9F723E0D0
:10011000A2E0B2E001C01D92AF31B207E1F70E9448
:1001200043050C94B10F0C9400008091C00087FF30
:10013000FCCF8091C60008959091C00095FFFCCF40
:100140008093C60008950F931F93CF93DF938C0184
:10015000C3E1D2E0CE01835192408017910724F48D
:100160000E9495008993F6CFDF91CF911F910F9157
:100170000895CF93DF93C3E1D2E00E949500899365
:100180008111FBCFDF91CF9108952B9AA19AA29A6A
:100190005F9A089510920B0110920A0112B818B8D4
:1001A0008FEF81B987B9089598B982B908950E94EF
:1001B000D400A198A2980000000080910901A29AA1
:1001C000A19A0895CF93DF93D62FC42F0E94D40015
:1001D0008FEF80930A01D0930B015F98C13009F42F
:1001E000A1980000C13009F4A19A5F9A10920B0106
:1001F00010920A01DF91CF91089512B818B81092A9
:1002000008018FEF81B987B98093070108950F9393
:100210001F93E8E0F1E0108218B812B82FEF209396
:10022000070127B921B98C01222733270083072F23
:10023000182F292F332708B962B91F910F910895FC
:100240000E940701A19818B812B817B811B8A2985F
:10025000000026B180B1A29AA19A90E0922B089555
:100260000E94D4002B98A298000000008091060103
:10027000A29A2B9A0895CF93C62F0E94D400E7E04C
:10028000F1E08FEF8083A8E0B1E0CC932B985F98EA
:10029000000000005F9A2B9A1C921082CF91089563
:1002A0008FEF81B987B98093070190E892B988B937
:1002B000809308010895A198623049F4411105C066
:1002C000906C2FE0E1E0F0E013C09068FACF4111AC
:1002D00002C0806C01C0806827E0F4CF28985F9846
:1002E000000000005F9A00000000215027FD0DC0B3
:1002F000BF01022E02C0660F771F0A94E2F768233F
:100300007923672B59F3289AEACF411107C028981F
:1003100000005F98000000005F9AA19A089540E0F5
:100320000E945B01809108018E7F8093080180917B
:1003300007018E7F80930701A19884E0A2980000B6
:100340000000A29A000000008150C1F7E4E1F3E050
:1003500041E050E087E090E020E0A298000000003B
:10036000A29A3091090130FF07C0BA01082E01C0DE
:10037000660F0A94EAF7262B019778F7219383E01A
:10038000EC31F80739F7A19A8091080181608093D8
:10039000080180910701816080930701089541E081
:1003A0000E945B01E4E1F3E048E027E030E0808177
:1003B00090E0022E02C0959587950A94E2F780FF9F
:1003C00002C0289A01C028985F98000000005F9A38
:1003D000000000002150310950F741503196411181
:1003E000E4CF28985F98000000005F9A00000000AA
:1003F000A19A0895CF93C62F2FEF209307010E9453
:10040000D400C09308012B985F9800002B9A5F9A44
:10041000CF910895CF93DF936AEA85E595E50E9431
:10042000FA0165E58AEA9AE20E94FA0160E985E547
:1004300095E50E94FA012FEF89EF90E0215080406E
:100440009040E1F700C000001092080110920701EF
:1004500080E090E00E943001C1E1D2E0888381E039
:1004600090E00E94300189836AEA85E595E50E9463
:10047000FA0165E58AEA9AE20E94FA0160EF85E5F1
:1004800095E50E94FA012FEF89EF90E0215080401E
:100490009040E1F700C00000DF91CF910895CF9325
:1004A000C82F6AEA85E595E50E94FA0165E58AEAC2
:1004B0009AE20E94FA0160EB85E595E50E94FA0157
:1004C0006C2F80E090E0CF910C94FA01CF93C82F6D
:1004D0006AEA85E595E50E94FA0165E58AEA9AE20D
:1004E0000E94FA0160E885E595E50E94FA016AEA52
:1004F00085E595E50E94FA0165E58AEA9AE20E949F
:10050000FA0160E380E09C2F9295907F0E94FA01AF
:100510002FE788E391E0215080409040E1F700C050
:100520000000CF9108951F93CF93DF93EC01162F16
:100530006AEA85E595E50E94FA0165E58AEA9AE2AC
:100540000E94FA0160EA85E595E50E94FA01612FB3
:10055000CE010E94FA018AE68A95F1F700C0DF9188
:10056000CF911F910895EF92FF920F931F93CF9316
:10057000DF938C016AEA85E595E50E94FA0165E55D
:100580008AEA9AE20E94FA0160EA85E595E50E940E
:10059000FA011695102F00271795079593E1E92E7C
:1005A00092E0F92EC0E0D0E0F70161917F01CE0129
:1005B000802B912B0E94FA012196C038D105A1F71A
:1005C000FFEF29EF80E0F15020408040E1F700C0CC
:1005D0000000DF91CF911F910F91FF90EF90089550
:1005E00010920B0110920A010E94D400A298000000
:1005F000000080910901A29A0895A29800000000CD
:1006000080910901A29A0895CF93C62F2FEF2093CE
:100610000A010E94D400C0930B0180911C03813415
:1006200031F42A980000000000002A9A05C05F9863
:100630000000000000005F9A10920B0110920A0166
:10064000CF91089598B982B960930B0180911C03F2
:10065000813431F42A980000000000002A9A08959D
:100660005F980000000000005F9A08950F931F93A9
:10067000CF938C01C62F8FEF80930A016091070200
:1006800080910502909106020E94220360910B0264
:100690008091090290910A020E94220360910F0248
:1006A00080910D0290910E020E9422036C2FC801CE
:1006B0000E9422038AE18A95F1F700C010920B0193
:1006C00010920A010E94FD028C1751F00E94FD0257
:1006D00095E09A95F1F70000909102029130A1F710
:1006E000CF911F910F9108951F93CF93DF93EC014A
:1006F000162F80910402813069F440E0609103027A
:1007000080E091E20E94E20087EC90E00197F1F72F
:1007100000C00000609107028091050290910602DE
:100720000E94040360910B028091090290910A02D9
:100730000E94040360910F0280910D0290910E02BD
:100740000E940403612FCE010E94040387EE93E010
:100750000197F1F700C0000010920B0110920A01FE
:100760002B9887EC90E00197F1F700C000002B9ADE
:1007700087EC90E00197F1F700C00000DF91CF9186
:100780001F910895FF920F931F93CF93DF93EC0176
:10079000162FFF24FA94F0920A0101E208B912B868
:1007A00081E080930B015F9800005F9A60910702DF
:1007B00080910502909106020E94040360910B0251
:1007C0008091090290910A020E94040360910F0235
:1007D00080910D0290910E020E940403F0920A0192
:1007E00008B912B88091030280930B015F98000052
:1007F0005F9A612FCE010E94040385E38A95F1F789
:10080000000010920B0110920A01CE010E94F0022A
:10081000811759F0CE010E94F0029AE19A95F1F702
:1008200000C090910202913099F7DF91CF911F9112
:100830000F91FF9008950F931F938C012227332768
:10084000E8E0F1E00083072F182F292F332708B99C
:1008500062B9A198508340930B015F98000000009B
:1008600000005F9AA19A1F910F9108958FEF8093D6
:10087000070187B981B9E8E0F1E0108295E098B905
:1008800085E582B9A1981082ABE0B1E029EA2C930A
:100890005F980000000000005F9AA19A108222E099
:1008A00028B92AEA22B9A198108226E52C935F98EC
:1008B0000000000000005F9AA19A108298B982B9E6
:1008C000A198108280EA8C935F98000000000000DD
:1008D0005F9AA19A08958FEF8093070187B981B934
:1008E000E8E0F1E0108295E098B985E582B9A19839
:1008F0001082ABE0B1E02AEA2C935F980000000080
:1009000000005F9AA19A108232E038B922B9A1980A
:1009100010828C935F980000000000005F9AA19AFB
:10092000108298B982B9A198108280EA8C935F985E
:100930000000000000005F9AA19A0895CF92DF9214
:10094000EF92FF92CF93DF936B017C01EA012111BB
:1009500003C00E946B0402C00E943604AE01C701AE
:10096000B6010E941B042AE02A95F1F700C0C701D6
:10097000B6010E9420018C179D0761F0C701B601E6
:100980000E9420012AE02A95F1F700C0209102027E
:10099000213089F7DF91CF91FF90EF90DF90CF90DA
:1009A0000895109202021092850010928400E1E8EE
:1009B000F0E080818360808308951092020210929B
:1009C000850010928400109281002F9808958091E4
:1009D0000202811106C00E94DD0481E30E949C0096
:1009E0002F98089584B7877F84BFE0E6F0E088E120
:1009F000808310820E94C500579A84B1886884B9A8
:100A000083B3866083BB10920B0110920A0112B867
:100A100011B818B817B82F9A2FEF89E698E121502E
:100A200080409040E1F700C000002F9881E0809363
:100A3000C400E0ECF0E0808182608083E1ECF0E0D3
:100A4000808188608083808180618083EFE6F0E030
:100A50008081816080831092850010928400789458
:100A600008951F920F920FB60F9211248F9385B1A4
:100A7000805885B981E0809302028F910F900FBE5C
:100A80000F901F901895CF93DF93CDB7DEB7A79740
:100A90000FB6F894DEBF0FBECDBF0E94F20421E076
:100AA0002DA366246394C12CD12C760177247A94EB
:100AB000CE0181969AA389A3EDA1E13011F40E94A1
:100AC000C5000E94950080931303833421F4809124
:100AD00000020C94CE0D873439F40E94CA000E94A3
:100AE000DD0410920402E8CF873619F40E94FD005D
:100AF00005C0833331F482E0809300020E94DD045C
:100B0000DBCF853311F481E0F7CF813469F40E94A3
:100B1000B90040E150E060E070E083E192E00E94C3
:100B2000050E6B017C01C8CF823511F50E94CA0009
:100B300081E38093130380911303813309F0BCCFC9
:100B40002F9A00E010E0C8018C0D9D1D0E94D70077
:100B50000E949C000F5F1F4F00341105A1F7F0E4C5
:100B6000CF0ED11CE11CF11C2F980E949500E1CF03
:100B70008135B9F40E94CA002F9A00E010E0C80144
:100B80008C0D9D1D0E94D7000E949C000F5F1F4F7F
:100B9000011520E4120799F780E4D80EE11CF11C3E
:100BA000AAC0873509F50E94CA0080E490E00E943F
:100BB000A3002F9AF3E1AF2EF2E0BF2E00E010E089
:100BC000F50161915F01C8018C0D9D1D41E00E94FE
:100BD000E2000F5F1F4F0034110591F7F0E4CF0ED4
:100BE000D11CE11CF11CCAC4823419F50E94CA0050
:100BF0000E94B90040E150E060E070E083E192E0E3
:100C00000E94050E4B015C010E9495008093130326
:100C1000823409F051CF0E94B90083E192E00E9432
:100C2000330F8093030240E0682FC4010E94E2006A
:100C300043CF823711F08A36E1F50E94FD008091A2
:100C400013038A3611F010E201C010E881E38093AB
:100C5000130388248A94810E912CA12CB12C2FEFA0
:100C6000821A920AA20AB20A80911303813309F010
:100C700023CF2F9A16012701C201B1010E94200142
:100C8000092F0E949C00802F0E949C008FEF281A41
:100C9000380A480A580A822D8C19811768F3C80C43
:100CA000D91CEA1CFB1C2F980E949500809313030B
:100CB000DBCF8A3511F50E94FD002F9AC701B601DE
:100CC0000E940701A19818B812B817B811B800E02F
:100CD00010E017FD0CC0A298000080B10E949C009B
:100CE00086B10E949C00A29A0F5F1F4FF2CF90E83E
:100CF000D90EE11CF11C2F98DFCE8D3609F50E942C
:100D0000CA0081E380931303809113038133E9F5D3
:100D10002F9A00E010E0C8018C0D9D1D0E9430014B
:100D20000E949C000F5F1F4F00341105A1F7E0E403
:100D3000CE0ED11CE11CF11C2F980E949500E2CF31
:100D4000873731F50E94CA0080E490E00E94A3003A
:100D50002F9AE3E1AE2EE2E0BE2E00E010E0F501B6
:100D600061915F01C8018C0D9D1D0E943B010F5FC9
:100D70001F4F0034110599F7F0E4CF0ED11CE11C90
:100D8000F11C81E30E949C002F980E94FD0094CEEC
:100D90008F3649F40E94CA000E949500682FC60150
:100DA0000E943B012FC0893669F40E94CA000E944C
:100DB0000A02809111020E949C00809112020E94FE
:100DC0009C00E3CF8B3669F40E94B90083E192E086
:100DD0000E94330F182F0E94CA00812F0E944F02D9
:100DE000D4CF833789F40E94CA000E94B90040E141
:100DF00050E060E070E083E192E00E94050E862FF3
:100E00000E94660281E3DBCF8236D9F40E94CA00D9
:100E100080E490E00E94A3002F9A73E1A72E72E075
:100E2000B72E00E010E0F50161915F01C8018C0D63
:100E30009D1D0E9493020F5F1F4F0034110599F70B
:100E40009BCF813681F40E94CA0080E890E00E9426
:100E5000A3002F9AC6010E94B3022FEFC21AD20A32
:100E6000E20AF20A8ECF833561F40E94B90040E1B4
:100E700050E060E070E083E192E00E94050E662E93
:100E80001BCE853621F50E94500181E38093130328
:100E900080911303813309F078CF2F9A662DC60114
:100EA0000E948F0104E113E0F80181918F010E94FB
:100EB0009C008CE193E080179107B1F79FEFC91A6E
:100EC000D90AE90AF90A2F980E949500DFCF8037E6
:100ED000F9F40E94500104E113E00E949500F8012A
:100EE00081938F018CE193E08E179F07B1F72F9AC2
:100EF000662DC6010E94CF019FEFC91AD90AE90ADF
:100F0000F90AEFEFFCE73197F1F700C0000039CFA5
:100F1000803551F40E94950080931C03813409F0C0
:100F2000CBCD229A2A9AC8CD8E3421F481E08093C9
:100F30000402C2CD853451F505E012E00E94B900EB
:100F400040E150E060E070E083E192E00E94050E35
:100F5000F8017183608381E30E949C000E94B900C4
:100F600040E150E060E070E083E192E00E94050E15
:100F7000F8017383628381E30E949C000C5F1F4F22
:100F800081E192E080179107C9F696CD8634D9F4B5
:100F90000E94B90040E150E060E070E083E192E03F
:100FA0000E94050E4B015C010E94B90040E150E037
:100FB00060E070E083E192E00E94050E2F9AC40188
:100FC0000E940403DBC28435B9F580E490E00E94FE
:100FD000A3000E94D1042F9A8091040263E1A62EFF
:100FE00062E0B62E00E010E08130D9F4F5016191A5
:100FF0005F016F3F29F0C8018C0D9D1D0E943603D3
:101000000F5F1F4F0034110589F720E4C20ED11C79
:10101000E11CF11CA7C50F5F1F4F0034110509F437
:10102000F6C0F50161915F016F3FA9F3C8018C0D16
:101030009D1D0E94C203EFCF893509F058C080E2A0
:1010400090E00E94A3000E94D1042F9A6AEA8AEAE3
:101050009AE00E94040365E585E595E00E9404039B
:10106000560165E2C6010E9404036FE1C6010E94B9
:10107000040385E08A95F1F7000003E112E0812C7A
:10108000912CF80161918F01C501880D991D0E9475
:101090000403FFEF8F1A9F0A20E28216910489F75A
:1010A00080E2C80ED11CE11CF11CC601809769E2E8
:1010B0000E940403EFE1F3E03197F1F700C0000074
:1010C000860101501109C8010E94F002909132027C
:1010D000891709F447C5C8010E94F002FAE1FA95A0
:1010E000F1F700C090910202913081F73BC5853540
:1010F00009F06FC080E091E00E94A3000E94D1043B
:101100002F9A43E1842E42E0942E58E0352ECE01F2
:1011100001962C01FC01D4018D91819389A19AA1A2
:101120008E179F07C9F76AEA8AEA9AE00E940403C9
:1011300065E585E595E00E940403560165E2C60178
:101140000E9404036FE1C6010E94040395E09A9592
:10115000F1F7000000E010E0F20161912F01C501FC
:10116000800F911F0E9404030F5F1F4F0032110573
:1011700099F7F0E2CF0ED11CE11CF11CC60180975B
:1011800069E20E9404038FE193E00197F1F700C048
:101190000000860101501109C8010E94F00298A1C7
:1011A000891759F0C8010E94F0029AE19A95F1F767
:1011B00000C090910202913091F78091020281303B
:1011C00009F4D0C43A94E0E28E0E911C31109FCF06
:1011D000C9C48A3411F580E490E00E94A3000E9403
:1011E000D1042F9A33E1A32E32E0B32E00E010E0B9
:1011F000F50161915F016F3F29F0C8018C0D9D1DC4
:101200000E9474030F5F1F4F0034110589F7F0E44B
:10121000CF0ED11CE11CF11CA5C4883509F053C0C8
:1012200080E091E00E94A3000E94D1042F9A69EA15
:101230008AEA9AE00E94040366E585E595E00E944B
:101240000403560166E2C6010E9404036FEFC60163
:101250000E94040387EC90E00197F1F700C00000C2
:1012600003E112E0812C912CF80161918F01C401FE
:101270008A0D9B1D0E940403FFEF8F1A9F0A8114A1
:1012800021E0920689F78FEFD81AE80AF80AC6011A
:101290009A956AE20E940403860101501109C8016F
:1012A0000E94F00290911203891709F45BC4C801EF
:1012B0000E94F0029AE19A95F1F700C09091020223
:1012C000913081F74FC48A3709F0DBC080E890E0A5
:1012D0000E94A3002F9A69E080E291E00E9404033B
:1012E0006AEA81E291E00E94040365E582E291E00E
:1012F0000E94040365EA8FE391E00E940403EAE19F
:10130000EA95F1F700C061E180E291E00E940403F8
:1013100065EA8FE391E00E940403FAE1FA95F1F7A0
:1013200000C061E080E091E20E9404032AE12A9576
:10133000F1F700C06FE080E291E00E94040365E5F0
:1013400085E291E00E94040365E586E291E00E9457
:1013500004036AEA87E291E00E94040365EA8FE3EE
:1013600091E00E9404038AE18A95F1F700C06FE0E2
:1013700080E291E00E9404036AE285E291E00E942B
:1013800004036AEA86E291E00E94040365E587E2CD
:1013900091E00E94040365EA8FE391E00E94040358
:1013A0009AE19A95F1F700C06FE080E291E00E9427
:1013B000040365E585E291E00E94040365E586E2A9
:1013C00091E00E94040360EA87E291E00E94040336
:1013D00065EA8FE391E00E940403EAE1EA95F1F700
:1013E00000C040E06091030280E091E20E94E200D0
:1013F000FAE1FA95F1F700C060E180E291E00E9425
:10140000040365EA8FE391E00E9404032AE12A9530
:10141000F1F700C068E080E291E00E94040365EA11
:101420008FE391E00E9404038AE18A95F1F700C0FE
:1014300003E112E083E992E08017910781F0F8015F
:1014400061918F01C6010E940403FAE1FA95F1F758
:1014500000C02FEFC21AD20AE20AF20AEBCF6FEFF6
:10146000D701C6010197A109B1090E940403EFE366
:10147000FCE93197F1F700C0000081E30E949C0075
:101480003ACC893709F051C080E290E00E94A30075
:101490002F9A860168EEC6010E9404030E94D104BF
:1014A000C8010E94F002803821F080910202813050
:1014B000B9F7809102028111FFCA0E94D1046FE145
:1014C000C8010E94040323E1A22E22E0B22E812C47
:1014D000912CF50161915F01C401800F911F0E9461
:1014E0000403FFEF8F1A9F0A20E28216910489F706
:1014F00080E2C80ED11CE11CF11C860100521109CA
:1015000060EDC8010E940403EFE0F3E03197F1F7CA
:1015100000C00000C8010E94F002803809F422C314
:10152000809102028130B1F71DC38E3651F50E94C1
:10153000B90040E150E060E070E083E192E00E9499
:10154000050E4B015C010E949500809313038E36BB
:1015500009F0B2CA0E94B90040E150E060E070E0DA
:1015600083E192E00E94050E2F9A7092070177B8EE
:1015700071B8AB01C501B4010E941B042F9881E32F
:101580000DC3813719F0843709F041C02F9A80913B
:101590001303843719F000E410E002C000E011E00A
:1015A000C8010E94A3000E94D10493E1A92E92E0F9
:1015B000B92E16012701F501418150E0542F44272F
:1015C0008081482B4F3FFFEF5F0729F021E0C201E8
:1015D000B1010E949E042FEF221A320A420A520AD7
:1015E00082E0A80EB11CC50183519240801791077B
:1015F00014F39FEFC91AD90AE90AF90A015011092F
:1016000016950795C00ED11EE11CF11CABC28636A3
:1016100069F52F9A80E091E00E94A3000E94D10416
:1016200003E112E046015701F801418150E0542FD7
:1016300044278081482B4F3FFFEF5F0729F020E0D0
:10164000C501B4010E949E042FEF821A920AA20AD9
:10165000B20A0E5F1F4F83E193E08017910721F7D5
:1016600090E8C90ED11CE11CF11C7CC2833609F044
:10167000A2C080E091E00E94A3002F9A03E112E053
:101680000E94D1047092070177B871B8FE013196BB
:101690005F01D8018D91819389A19AA1E817F9077B
:1016A000C9F74AEA50E065E575E080E090E00E9405
:1016B0001B0445E550E06AEA72E080E090E00E9499
:1016C0001B0445E250E0C701B6010E941B044FE035
:1016D00050E0C701B6010E941B0495E09A95F1F70E
:1016E0000000C701AA27BB2780930801BB27AF2DA5
:1016F0009E2D8D2D88B9C2B8A198F5018181809366
:101700000801808180930B015F98000000000000B9
:101710005F9AA2980000A29AF2E0AF0EB11C89A1D4
:101720009AA18A159B0549F74601570190E1890E58
:10173000911CA11CB11C16012701EFE02E0E311CDB
:10174000411C511CA19AC701B6016F5F7F4F8F4F9B
:101750009F4F49E250E00E941B048FE193E0019704
:10176000F1F700C00000EF8CF8A0C201B1010E94A7
:1017700020018E159F0561F0C201B1010E94200178
:10178000E5E0EA95F1F7000020910202213089F7A7
:1017900080910202813051F0005E1F4F83E193E09F
:1017A0008017910719F0750164016ACF0E94E70460
:1017B0007501640181C98C3609F08EC02F9A80E4CE
:1017C00090E00E94A3000E94D1047092070177B8B4
:1017D00071B840E650E0C701B6010E941B0440ED1D
:1017E00050E0C701B6010E941B0448EE50E0C7015B
:1017F000B6010E941B04E7ECF0E03197F1F700C05E
:101800000000C701B6010E9420018038910571F0E7
:10181000C701B6010E942001E7ECF0E03197F1F733
:1018200000C0000020910202213079F77092070178
:1018300077B871B84FE150E0C701B6010E941B04B0
:1018400003E112E046015701F801418150E0542FB5
:1018500044278081482BC501B4010E941B04FFEF7F
:101860008F1A9F0AAF0ABF0A0E5F1F4F83E592E0EF
:101870008017910749F790E2C90ED11CE11CF11CB9
:1018800040ED50E0C701B6010E941B04EFEDF6E009
:101890003197F1F700C00000C701B6010E94200196
:1018A0008038910571F0C701B6010E942001E7EC74
:1018B000F0E03197F1F700C00000209102022130E2
:1018C00079F77092070177B871B84FEF50E0C70110
:1018D000B6010E941B0446C1853709F043C02F9A08
:1018E00080E490E00E94A3000E94D10443E1A42E72
:1018F00042E0B42E160127017092070177B871B843
:10190000F501018110E0102F00278081082B40E4B1
:1019100050E0C201B1010E941B04A801C201B10143
:101920000E941B04C201B1010E94200187FD0CC06E
:10193000C201B1010E942001FAE0FA95F1F700C05E
:1019400090910202913091F72FEF221A320A420A47
:10195000520A82E0A80EB11CE3E5F2E0EA15FB05AD
:1019600059F6FBC0863709F0B2C02F9A80E091E0AB
:101970000E94A3000E94D10403E112E070920701CB
:1019800077B871B848EE50E0C701B6010E941B0459
:10199000460157012FEF821A920AA20AB20A48EEB4
:1019A00050E0C501B4010E941B04C701B6010E94AA
:1019B00020018038910549F0809102028130A9F719
:1019C00004C080910202813039F0C501B4010E9447
:1019D000200180389105A9F780910202811165C02C
:1019E0000E94D1047092070177B871B84FE050E0BF
:1019F000C701B6010E941B044FE050E0C501B401CD
:101A00000E941B041CA30BA3160127011FA21EA2E8
:101A1000EBA1FCA1418150E0542F44278081482B49
:101A2000C201B1010E941B04FFEF2F1A3F0A4F0AA7
:101A30005F0A8EA19FA102969FA38EA3EBA1FCA19A
:101A40003296FCA3EBA38034910511F71601270110
:101A5000F0E22F0E311C411C511C40ED50E0C7013B
:101A6000B6010E941B0440ED50E0C501B4010E9484
:101A70001B04C201B1010E9420018038910521F0B0
:101A8000809102028130A9F721E2C20ED11CE11C33
:101A9000F11CC701B6010E9420018038910539F080
:101AA000809102028130A9F702C016012701005C73
:101AB0001F4F83E193E08017910719F072016101D4
:101AC0005DCF0E94E704720161010C945C058837C8
:101AD00009F04CC02F9A80E490E00E94A3000E947D
:101AE000D10493E1A92E92E0B92E16012701912C81
:101AF0007092070177B871B897FC0CC040E750E0CE
:101B0000C201B1010E941B04C201B1010E94200167
:101B1000982EEECFF501018110E0102F0027808173
:101B2000082B40E150E0C201B1010E941B04A80152
:101B3000C201B1010E941B04F5EDFA95F1F7000016
:101B40002FEF221A320A420A520A82E0A80EB11C72
:101B5000E3E5F2E0EA15FB0559F6F0E2CF0ED11C01
:101B6000E11CF11C0E94E7040C945C058D3479F4AF
:101B70000E949500813321F491E09DA30C945F05B0
:101B8000803311F00C945C051DA20C94610588361D
:101B900011F484E003C0863529F486E10E949C009C
:101BA0000C945C058B3269F400E010E481E30E9440
:101BB0009C0080E30E949C0001501109B9F70C942D
:101BC0005C058A3211F00C945C050E94B90040E17A
:101BD00050E060E070E083E192E00E94050E613E1B
:101BE000754E8740910511F00C945C0584B7877F92
:101BF00084BF88E1809360008CE0809360008FEF69
:101C00009FEF0197F1F70C945C053F924F925F9222
:101C10006F927F928F929F92AF92BF92CF92DF92FC
:101C2000EF92FF920F931F93CF93DF935C016B01B1
:101C30007A016115710519F0FB0191838083E1142C
:101C4000F10429F0C7010297839708F0E5C0E50188
:101C50002196F5011081812F90E00E94510F892B70
:101C600011F05E01F4CF1D3229F42196F5011181A6
:101C700001E007C01B3221F4E5012296F501118134
:101C800000E0E114F10409F1F0E1EF16F10429F4A8
:101C90003FC010E3E114F10421F128E0E216F10461
:101CA00001F154F4E2E0EE16F10421F5812C912CBF
:101CB000A12CB0E4BB2E3EC0FAE0EF16F10439F0DF
:101CC00020E1E216F104B1F430C0103319F1FAE06A
:101CD000EF2EF12CACEC8A2E982CA82CACE0BA2E6E
:101CE00029C078E0E72EF12C812C912CA12CE0E189
:101CF000BE2E20C060E070E080E090E897010F2CDD
:101D0000000C440B550B0E94750F49015A0112C07B
:101D1000103359F488818F7D883509F0BACF198145
:101D20002296026080E1E82EF12C812C912CA12CCE
:101D300068E0B62E40E060E070E0CB0127010F2C98
:101D4000000C66087708FE0150ED352E310E29E0B3
:101D5000231570F42FEB210F2A3118F439EC332EB0
:101D600006C02FE9210F2A3118F529EA322E310E4B
:101D7000232D30E02E153F05DCF447FD16C08616F6
:101D80009706A806B90670F0A30192010E94650F9C
:101D9000630D711D811D911D61307105810520E864
:101DA000920710F04FEF01C041E021961081CBCF98
:101DB000202F2170C114D10471F0442329F0219700
:101DC000F601D183C08307C001FF19C02297F60135
:101DD000D183C08314C047FF12C0222329F060E0E2
:101DE00070E080E090E804C06FEF7FEF8FEF9FE737
:101DF00022E230E030931E0320931D0309C022230A
:101E000081F090958095709561957F4F8F4F9F4F92
:101E1000462F372F282F12C040E030E020E090E01E
:101E20000DC097FFF5CF82E290E090931E03809360
:101E30001D036FEF7FEF8FEF9FE7EACF642F732FC4
:101E4000822FDF91CF911F910F91FF90EF90DF9044
:101E5000CF90BF90AF909F908F907F906F905F904A
:101E60004F903F900895FC0188279927E89421918D
:101E70002032E9F3293010F02E30C8F32B3241F034
:101E80002D3239F4689404C00E945A0F820F911DBC
:101E9000219120532A30C0F31EF4909581959F4FD5
:101EA000089591110C94620F803219F08950855079
:101EB000C8F708957AE0979F902D879F802D910D08
:101EC00011240895992788270895DB018F939F9304
:101ED0000E94970FBF91AF91A29F800D911DA39F6C
:101EE000900DB29F900D11240895A1E21A2EAA1B05
:101EF000BB1BFD010DC0AA1FBB1FEE1FFF1FA217BA
:101F0000B307E407F50720F0A21BB30BE40BF50BB6
:101F1000661F771F881F991F1A9469F7609570953F
:101F2000809590959B01AC01BD01CF0108950E9461
:101F3000A20FA59F900DB49F900DA49F800D911DA1
:101F400011240895A29FB001B39FC001A39F700DFB
:101F5000811D1124911DB29F700D811D1124911DB1
:061F60000895F894FFCF84
:021F6600020077
:00000001FF
